:020000040800F2
:1000000000000220151400084106000843060008FD
:1000100045060008470600084906000800000000E1
:100020000000000000000000000000004B06000877
:100030004D060008000000004F06000851060008A9
:1000400065140008651400086514000865140008AC
:10005000651400086514000865140008651400089C
:10006000651400086514000865140008651400088C
:10007000651400086514000865140008651400087C
:10008000651400086514000865140008651400086C
:10009000651400086514000865140008651400085C
:1000A000651400086514000865140008651400084C
:1000B000651400086514000865140008651400083C
:1000C000651400086514000865140008651400082C
:1000D000651400086514000865140008651400081C
:1000E000651400086514000865140008651400080C
:1000F00065140008651400086514000865140008FC
:1001000065140008651400086514000865140008EB
:1001100065140008651400086514000865140008DB
:1001200065140008651400086514000865140008CB
:1001300065140008000000000000000065140008BD
:1001400065140008651400086514000865140008AB
:10015000651400086514000865140008651400089B
:10016000651400086514000865140008651400088B
:1001700065140008651400086514000800000000FC
:1001800000000000651400080000000000000000EE
:10019000651400080000000000000000651400085D
:1001A00000000000000000000000000065140008CE
:1001B000651400086514000865140008651400083B
:0401C00065140008BA
:1001C40010B5054C237833B9044B13B10448AFF38D
:1001D40000800123237010BD0C00002000000000EB
:1001E400C014000808B5034B1BB103490348AFF31F
:1001F400008008BD0000000010000020C0140008AA
:1002040053B94AB9002908BF00281CBF4FF0FF3179
:100214004FF0FF3000F074B9ADF1080C6DE904CE75
:1002240000F006F8DDF804E0DDE9022304B07047CD
:100234002DE9F047089D04468E46002B4DD18A4295
:10024400944669D9B2FA82F252B101FA02F3C2F1C8
:10025400200120FA01F10CFA02FC41EA030E944059
:100264004FEA1C48210CBEFBF8F61FFA8CF708FB7A
:1002740016E341EA034306FB07F199420AD91CEB52
:10028400030306F1FF3080F01F81994240F21C8184
:10029400023E63445B1AA4B2B3FBF8F008FB1033CC
:1002A40044EA034400FB07F7A7420AD91CEB040401
:1002B40000F1FF3380F00A81A74240F207816444D1
:1002C400023840EA0640E41B00261DB1D440002356
:1002D400C5E900433146BDE8F0878B4209D9002DBA
:1002E40000F0EF800026C5E9000130463146BDE844
:1002F400F087B3FA83F6002E4AD18B4202D38242AE
:1003040000F2F980841A61EB030301209E46002D5C
:10031400E0D0C5E9004EDDE702B9FFDEB2FA82F2B1
:10032400002A40F09280A1EB0C014FEA1C471FFA0F
:100334008CFE0126200CB1FBF7F307FB131140EAF6
:1003440001410EFB03F0884208D91CEB010103F1C3
:10035400FF3802D2884200F2CB804346091AA4B285
:10036400B1FBF7F007FB101144EA01440EFB00FE59
:10037400A64508D91CEB040400F1FF3102D2A645BE
:1003840000F2BB800846A4EB0E0440EA03409CE75D
:10039400C6F12007B34022FA07FC4CEA030C20FA0A
:1003A40007F401FA06F31C43F9404FEA1C4900FA2A
:1003B40006F3B1FBF9F8200C1FFA8CFE09FB1811A7
:1003C40040EA014108FB0EF0884202FA06F20BD91A
:1003D4001CEB010108F1FF3A80F08880884240F26A
:1003E4008580A8F102086144091AA4B2B1FBF9F0AE
:1003F40009FB101144EA014100FB0EFE8E4508D9A9
:100404001CEB010100F1FF346CD28E456AD902382D
:10041400614440EA0840A0FB0294A1EB0E01A14212
:10042400C846A64656D353D05DB1B3EB080261EB80
:100434000E0101FA07F722FA06F3F1401F43C5E95A
:10044400007100263146BDE8F087C2F12003D84090
:100454000CFA02FC21FA03F3914001434FEA1C47D2
:100464001FFA8CFEB3FBF7F007FB10360B0C43EAC4
:10047400064300FB0EF69E4204FA02F408D91CEB74
:10048400030300F1FF382FD29E422DD90238634472
:100494009B1B89B2B3FBF7F607FB163341EA034112
:1004A40006FB0EF38B4208D91CEB010106F1FF3861
:1004B40016D28B4214D9023E6144C91A46EA004658
:1004C40038E72E46284605E70646E3E61846F8E6EA
:1004D4004B45A9D2B9EB020864EB0C0E0138A3E733
:1004E4004646EAE7204694E74046D1E7D0467BE714
:1004F400023B614432E7304609E76444023842E78C
:10050400704700BF72B6FEE700B595B034220021F3
:1005140007A800F0CBFF00230293039304930593F1
:1005240006930093194A116C41F080511164126CC6
:1005340002F080520092009A019315490A6822F44D
:10054400404242F480420A600A6802F44042019246
:10055400019A0222079201220A9210220B920D9311
:1005640007A800F031FA68B90F2302930021039120
:1005740004910591069102A800F088F820B915B0FD
:100584005DF804FBFFF7BEFFFFF7BCFF0038024035
:100594000070004008B500F0F1FEFFF7B5FF00F071
:1005A40019F80A4C01222021204600F02DFE4FF4B8
:1005B400FA7000F00FFF00222021204600F024FEF4
:1005C4004FF4FA7000F006FFEBE700BF00000240B2
:1005D4007047000030B589B0002403940494059456
:1005E400069407940194134B1A6B42F080021A6329
:1005F4001A6B02F080020192019A02941A6B42F083
:1006040001021A631B6B03F001030293029B0A4D60
:1006140022462021284600F0F7FD202303930123DE
:1006240004930594069403A9284600F07FFC09B0BE
:1006340030BD00BF0038024000000240FEE7FEE784
:10064400FEE7FEE7FEE770477047704708B500F025
:10065400AFFE08BD82B0002100910B4B5A6C42F4EE
:1006640080425A645A6C02F480420092009A0191CA
:100674001A6C42F080521A641B6C03F0805301938D
:10068400019B02B0704700BF00380240002800F010
:10069400F78070B50D4604460368013B0E2B6BD8FA
:1006A4000F2D6FD87A4B1B6803F00F03AB4208D2AF
:1006B400EBB2774A1370136803F00F03AB4240F0B8
:1006C400E180236813F0020F29D013F0040F04D043
:1006D400704A936843F4E0539360236813F0080F5F
:1006E40004D06C4A936843F460439360A3687BB17D
:1006F400802B0DD0902B0BD0A02B09D0B02B07D082
:10070400C02B05D0D02B03D0E02B01D0F02B3FD150
:10071400604A936823F0F003A1680B439360236855
:1007240013F0010F4ED06368032B37D86368012B95
:100734003AD09A1E012A3ED9564A126812F0020F84
:1007440000F0A28053498A6822F0030213438B60AD
:1007540000F03AFE06464F4B9B6803F00C036268B8
:10076400B3EB820F2ED000F02FFE801B41F28833B2
:100774009842F0D9032076E04FF417714648FFF70A
:1007840027FF8DE740F25D214348FFF721FF89E70A
:100794004FF420714048FFF71BFFB9E740F287216F
:1007A4003D48FFF715FFC1E73A4A126812F4003FCB
:1007B400C8D1012057E0374A126812F0007FC1D136
:1007C400012050E0324B1B6803F00F03AB4207D902
:1007D400EAB22F4B1A701B6803F00F03AB4255D1DA
:1007E400236813F0040F14D0E3685BB1B3F5805FA2
:1007F40008D0B3F5A05F05D0B3F5C05F02D0B3F560
:10080400E05F31D1234A936823F4E053E1680B435A
:100814009360236813F0080F15D023695BB1B3F517
:10082400805F08D0B3F5A05F05D0B3F5C05F02D0F8
:10083400B3F5E05F1ED1174A936823F4604321693E
:1008440043EAC103936000F02FF8124B9B68C3F393
:100854000313124AD35CD840114B1860114B18682B
:1008640000F066FD002070BD40F2C5210A48FFF784
:10087400AFFEC7E74FF433710748FFF7A9FEDAE785
:10088400012070470120EEE70120ECE70120EAE7B0
:10089400003C024000380240D8140008B815000893
:1008A400080000200400002008B5444B9B6803F0B6
:1008B4000C03082B07D00C2B43D0042B01D0404849
:1008C40008BD4048FCE73D4B5A6802F03F025B68B4
:1008D40013F4800F12D0394B5968C1F38811394889
:1008E4000023A1FB0001FFF78BFC344B5B68C3F3CF
:1008F400014301335B00B0FBF3F0E1E72F4B596890
:10090400C1F3881C4FEA4C11B1EB0C006EEB0E0ED8
:100914004FEA8E1343EA90638101091A63EB0E03D5
:10092400DB0043EA5173C90011EB0C0C43F10003E3
:10093400990200234FEA8C2041EA9C51FFF760FCA6
:10094400D3E71E4B5A6802F03F025B6813F4800F32
:1009540010D01A4B5968C1F388111A480023A1FB1F
:100964000001FFF74DFC154B5B68C3F30273B0FB4A
:10097400F3F0A5E7114B5968C1F3881C4FEA4C11F9
:10098400B1EB0C006EEB0E0E4FEA8E1343EA90634C
:100994008101091A63EB0E03DB0043EA5173C900BA
:1009A40011EB0C0C43F10003990200234FEA8C2055
:1009B40041EA9C51FFF724FCD5E700BF0038024010
:1009C4000024F40040787D01002800F0968270B580
:1009D40082B0044603680F2B3FD8236813F0010F3D
:1009E40055D063682BB1B3F5803F02D0B3F5A02F87
:1009F40039D18E4B9B6803F00C03042B3ED08B4BF8
:100A04009B6803F00C03082B33D0884B9B6803F0DE
:100A14000C030C2B6CD06368B3F5803F6ED0B3F538
:100A2400A02F71D0814B1A6822F480321A601A68A0
:100A340022F480221A606368002B6FD000F0C4FC9B
:100A440005467A4B1B6813F4003F20D100F0BCFC30
:100A5400401B6428F5D9032056E240F6125174482D
:100A6400FFF7B6FDB9E740F617517148FFF7B0FD3F
:100A7400BFE76E4B5B6813F4800FC6D06B4B1B68EB
:100A840013F4003F03D06368002B00F0388223681E
:100A940013F0020F73D0E368012B4ED823691F2B88
:100AA40051D8624B9B6813F00C0F57D05F4B9B6877
:100AB40003F00C03082B4CD05C4B9B6803F00C0335
:100AC4000C2B79D0E368002B00F08580594B012270
:100AD4001A6000F079FC0546544B1B6813F0020FB2
:100AE40070D100F071FC401B0228F5D903200BE201
:100AF4004E4B5B6813F4800F8DD0BFE74B4A1368ED
:100B040043F48033136096E7484B1A6842F480221A
:100B14001A601A6842F480321A608CE700F054FCC0
:100B24000546424B1B6813F4003FB0D000F04CFC68
:100B3400401B6428F5D90320E6E140F64F513C48B8
:100B4400FFF746FDAAE74FF455613948FFF740FD2A
:100B5400A7E7364B5B6813F4800FADD1334B1B68AA
:100B640013F0020F03D0E368012B40F0CA812F4A2F
:100B7400136823F0F803216943EAC103136023686F
:100B840013F0080F58D06369012B36D86369002B22
:100B940039D0284B0122C3F8802E00F015FC0546FD
:100BA400224B5B6F13F0020F46D100F00DFC401B8B
:100BB4000228F5D90320A7E11C4B5B6813F4800FCE
:100BC40080D1CBE7194A136823F0F803216943EA7B
:100BD400C1031360D3E7174B00221A6000F0F4FB43
:100BE4000546124B1B6813F0020FC8D000F0ECFB53
:100BF400401B0228F5D9032086E140F696510C48A3
:100C0400FFF7E6FCC2E70B4B0022C3F8802E00F08E
:100C1400DBFB0546054B5B6F13F0020F0CD000F0B5
:100C2400D3FB401B0228F5D903206DE100380240B4
:100C34001015000800004742236813F0040F7CD00D
:100C4400A368012B01D9052B38D1924B1B6C13F0EF
:100C5400805F39D1002301938E4B1A6C42F080528D
:100C64001A641B6C03F080530193019B01258A4B8A
:100C74001B6813F4807F29D0A368012B3AD0052B7D
:100C84003ED0844B1A6F22F001021A671A6F22F0C9
:100C940004021A67A368002B3CD000F095FB0646BB
:100CA4007C4B1B6F13F0020F45D100F08DFB801BB2
:100CB40041F288339842F3D9032025E140F6C2512A
:100CC4007648FFF785FCC0E70025D0E7724A136831
:100CD40043F48073136000F077FB06466E4B1B6889
:100CE40013F4807FC8D100F06FFB801B0228F5D974
:100CF400032009E1674A136F43F001031367C9E74F
:100D0400644B1A6F42F004021A671A6F42F0010230
:100D14001A67BFE700F058FB06465E4B1B6F13F0E3
:100D2400020F08D000F050FB801B41F28833984238
:100D3400F3D90320E8E0002D40D1A369022B43D866
:100D4400A369002B00F0DF80524A926802F00C0283
:100D5400082A00F0A780022B40F08780E36913B1D2
:100D6400B3F5800F36D1236A3F2B39D8636A323BFF
:100D7400B3F5BF7F3AD8A36A022B05D0042B03D066
:100D8400062B01D0082B37D1E36A023B0D2B39D84F
:100D9400236B023B052B3BD8414B00221A6600F023
:100DA40013FB05463B4B1B6813F0007F36D000F065
:100DB4000BFB401B0228F5D90320A5E0354A136C30
:100DC40023F080531364B8E740F605613348FFF716
:100DD400FFFBB5E740F60E613048FFF7F9FBC2E7C9
:100DE40040F60F612D48FFF7F3FBBFE74FF4616155
:100DF4002A48FFF7EDFBBEE740F611612748FFF7ED
:100E0400E7FBC1E740F612612448FFF7E1FBBFE7C7
:100E140040F613612148FFF7DBFBBDE7E369226A73
:100E24001343626A43EA8213A26A5208013A43EA0C
:100E34000243E26A43EA0263226B43EA0273154AFD
:100E44005360174B01221A6600F0BEFA0446114B98
:100E54001B6813F0007F06D100F0B6FA001B0228CD
:100E6400F5D9032050E000204EE00D4B00221A6615
:100E740000F0AAFA0446074B1B6813F0007F06D063
:100E840000F0A2FA001B0228F5D903203CE0002060
:100E94003AE000BF0038024000700040101500081E
:100EA40000004742012B31D01F4B5B6803F48001E3
:100EB400E26991422CD103F03F02216A8A4229D18E
:100EC400616A47F6C0721A40B2EB811F24D103F461
:100ED4004031A26A5208013AB1EB024F1ED103F02D
:100EE4007062E16AB2EB016F1AD103F0E043226B46
:100EF400B3EB027F16D1002006E0012070470120E9
:100F040002E0012000E0002002B070BD0120FBE7F8
:100F14000120F9E70120F7E70120F5E70120F3E7D5
:100F24000120F1E70120EFE7003802402DE9F0410C
:100F340082B007460E46544B98421FD003F5806397
:100F440098421BD003F58063984217D003F5806361
:100F5400984213D003F5806398420FD003F5806361
:100F640098420BD003F58063984207D003F5806361
:100F7400984203D0AC214548FFF72AFB33689AB264
:100F840012B11B0C1B041BB1AD214048FFF720FB21
:100F94007368012B19D9112B17D0022B15D0122BE2
:100FA40013D0B3F5881F10D0B3F5041F0DD0B3F5DB
:100FB400441F0AD0B3F5901F07D0B3F5081F04D01F
:100FC400B3F5481F01D0032B01D1002496E0AE21D4
:100FD4002E48FFF7FDFAF8E7F368032B13D8BA6835
:100FE400610003238B4022EA0302F3688B4013431E
:100FF400BB607A6822EA05027368C3F30015A54052
:1010040015437D608BE0C0212048FFF7E1FAE6E755
:10101400D1211E48FFF7DCFA8AE03369DBB1092BE2
:1010240019D0012B17D0022B15D0032B13D0042B6E
:1010340011D0052B0FD0062B0DD0072B0BD0082B6E
:1010440009D00A2B07D00B2B05D00C2B03D00D2B6A
:1010540001D00F2B10D1E208083257F8220004F017
:10106400070399000F238B4020EA030033698B4068
:10107400034347F822306BE0DE210448FFF7A8FA67
:10108400E9E7062305E000BF000002404815000818
:1010940000238B4003430232574941F82230574B17
:1010A4001A686FEA080322EA0801706810F4803FA6
:1010B40001D048EA0201514A1160526803EA020170
:1010C400706810F4003F01D048EA02014B4A5160B5
:1010D400926803EA0201706810F4801F01D048EAA4
:1010E4000201464A9160D2681340716811F4001FEE
:1010F40001D048EA0203414AD36001340F2C78D866
:101104000125A540336803EA050835EA0303F4D151
:10111400736803F00303013B012B7FF65DAF736833
:1011240003F00303032B0DD0B368022B3FF670AF1B
:10113400FA68610003238B4022EA0302B3688B4000
:101144001343FB60736803F00303022B3FF465AFA2
:101154003A68610003238B4022EA0302736803F0B8
:1011640003038B4013433B60736813F4403FC4D0C4
:1011740000230193224B5A6C42F480425A645B6C04
:1011840003F480430193019BA208911C1A4B53F86A
:10119400210004F0030399000F238B4020EA03008D
:1011A400184B9F423FF474AF03F580639F4216D0FF
:1011B40003F580639F4214D003F580639F4212D0ED
:1011C40003F580639F4210D003F580639F420ED0E5
:1011D40003F580639F423FF454AF072359E701238B
:1011E40057E7022355E7032353E7042351E7052375
:1011F4004FE702B0BDE8F08100380140003C0140F7
:10120400003802400000024070B5054614460E4600
:1012140021B1012C08D86CB1AE6170BD40F29D11B2
:101224000648FFF7D5F9F4E74FF4CF710348FFF709
:10123400CFF9F0E73604AE61EFE700BF48150008C8
:1012440010B50446C31E042B0FD80A4AD36823F4EE
:10125400E0631B041B0C240204F4E064234343F006
:10126400BF6343F40033D36010BD92210248FFF7FB
:10127400AFF9EAE700ED00E08015000870B5054617
:101284000C4616460F2A25D80F2C28D81B4BDB6892
:10129400C3F30223C3F10701042928BF04211A1D43
:1012A400062A21D9033B4FF0FF3202FA01F124EA66
:1012B40001049C4002FA03F326EA03063443002D9A
:1012C40014DB2401E4B205F1604505F5614585F8B8
:1012D400004370BDAA210A48FFF77AF9D4E7AB218D
:1012E4000748FFF775F9D1E70023DCE705F00F05A0
:1012F4002401E4B2034B5C55EBE700BF00ED00E0D2
:101304008015000814ED00E00138B0F1807F0BD2A5
:101314004FF0E0235861054AF02182F823100020A1
:10132400986107221A6170470120704700ED00E0C0
:1013340010B504460E4B18784FF47A73B3FBF0F3F0
:101344000C4A1068B0FBF3F0FFF7DEFF68B90F2C0E
:1013540001D901200AE0002221464FF0FF30FFF7B7
:101364008DFF054B1C60002000E0012010BD00BF74
:1013740000000020080000200400002008B50B4BEA
:101384001A6842F400721A601A6842F480621A60A1
:101394001A6842F480721A600320FFF751FF0F208D
:1013A400FFF7C6FFFFF756F9002008BD003C0240D6
:1013B400034A1168034B1B780B441360704700BF4A
:1013C4002800002000000020014B1868704700BF6F
:1013D4002800002038B50446FFF7F6FF0546B4F1AF
:1013E400FF3F02D0044B1B781C44FFF7EDFF401B6A
:1013F400A042FAD338BD00BF00000020034AD2F84F
:10140400883043F47003C2F88830704700ED00E080
:10141400DFF834D00D480E490E4A002302E0D458B8
:10142400C4500433C4188C42F9D30B4A0B4C002328
:1014340001E013600432A242FBD3FFF7DFFF00F0A8
:1014440011F8FFF7A7F87047000002200000002001
:101454000C000020D81500080C0000202C000020EF
:10146400FEE7000070B50D4D0D4C641BA410002662
:10147400A64209D10B4D0C4C00F020F8641BA410BB
:101484000026A64205D170BD55F8043B98470136A5
:10149400EEE755F8043B98470136F2E7D01500080B
:1014A400D0150008D0150008D415000802440346DE
:1014B400934200D1704703F8011BF9E7F8B500BF68
:1014C400F8BC08BC9E467047F8B500BFF8BC08BC21
:0414D4009E46704779
:1014D800447269766572732F53544D3332463478AB
:1014E800785F48414C5F4472697665722F53726326
:1014F8002F73746D3332663478785F68616C5F720D
:1015080063632E6300000000447269766572732F6E
:1015180053544D3332463478785F48414C5F4472B7
:10152800697665722F5372632F73746D3332663424
:1015380078785F68616C5F7263635F65782E6300BB
:10154800447269766572732F53544D33324634783A
:10155800785F48414C5F4472697665722F537263B5
:101568002F73746D3332663478785F68616C5F67A7
:1015780070696F2E63000000447269766572732F7C
:1015880053544D3332463478785F48414C5F447247
:10159800697665722F5372632F73746D33326634B4
:1015A80078785F68616C5F636F727465782E63002A
:1015B80000000000000000000102030406070809FB
:0815C8006CECFF7F0100000044
:0415D000E901000825
:0415D400C501000845
:0C15D80001000000100000000024F400DE
:0400000508001415C6
:00000001FF
